:020000040000FA
:0620000072EF12F0120065
:022006001200C6
:0620080056EF10F012007B
:02200E001200BE
:062018005FEF10F0120062
:02201E000100BF
:0C2020004C2500000E000000090000002C
:04202C00D9CFE6FF23
:10203000E1CFD9FF83E900EBF3FF01EBF4FF040EDE
:10204000F31801E1F45019E0030EF31801E1F45024
:1020500011E0020EF31801E1F45009E0010EF3184B
:1020600001E1F45001E00CD0110E806E09D0090E90
:10207000806E06D0050E806E03D0030E806E00D0F9
:102080000001800E1B6F010E1C6F080EE66EE66AE3
:10209000E66A020EE66E1CC0FAFF1B51140044E90A
:1020A000010E806E41E9E7CFD9FF1200DACFE4FFDD
:1020B000E2CFDAFFE652E552E5CFDAFF1100D8CFE2
:1020C000E4FFE0CFE4FFE46EDACFE4FFE2CFDAFF33
:1020D000E652E552E5CFDAFFE550E5CFE0FFE5CF88
:1020E000D8FF1000D9CFE6FFE1CFD9FF83E944E85C
:1020F00000EBE9FF01EBEAFFEECF17F0EDCF18F0B0
:1021000017C0F6FF18C0F7FF0C0EF626000EF722D8
:102110000900F5CF19F00A00F5CF1AF019C0E9FF50
:102120001AC0EAFFEF50230A3CE0070A02E0010E62
:1021300060D0920E036E090E046E043404E2035064
:102140000008000E045425E212C0E6FF13C0E6FFAB
:102150006DDF42E90001800E1B6F010E1C6F020E45
:10216000E66EE66AE66AE66E1CC0FAFF1B511400D2
:1021700044E90001040E121901E1135103E1126B4D
:10218000136B03D0122B000E13230306000E045A08
:10219000D4D7806A19C0E9FF1AC0EAFFEF6A000EBF
:1021A00028D0030E056E066A063404E205500008C6
:1021B000000E065417E212C0E6FF13C0E6FF36DF3A
:1021C00042E90001010E121901E1135104E1040E6C
:1021D000126F136B03D01207000E135B0506000E7F
:1021E000065AE2D719C0E9FF1AC0EAFFEF6A000EEB
:1021F00000D045E9E7CFD9FF1200836AF00E956E53
:1022000061EC11F0FF0823E1D4EC11F00001166F2E
:10221000836A956A1651F76A3C0FF66E250EF7220F
:102220000800F5CFE6FF03EC10F041E90001800E55
:102230001B6F010E1C6F900EE66E010EE66EE66AD5
:10224000020EE66E1CC0FAFF1B51140044E9120096
:10225000C168806A926A0001800E1B6F010E1C6FBC
:10226000E40EE66E200EE66EE66A050EE66E1CC013
:10227000FAFF1B51140044E90001800E1B6F010E90
:102280001C6FE66AE66AE66A040EE66E1CC0FAFF98
:102290001B51140044E90001800E1B6F010E1C6FDE
:1022A000E66AE66AE66A030EE66E1CC0FAFF1B5198
:0822B000140044E9E1D712001B
:0822B80004D8000901E0FCD785
:1022C000120007D8FF0802E0FF0E02D0000E00D077
:1022D0001200F00E83140109836E0A0EE66EE66AA0
:1022E00056EC12F042E983A802D0000E5CD083AA1B
:1022F00002D0010E58D083AC02D0020E54D083AE6F
:1023000002D0030E50D0F00E83140209836E0A0E21
:10231000E66EE66A56EC12F042E983A802D0040E9B
:1023200042D083AA02D0050E3ED083AC02D0060E66
:102330003AD083AE02D0070E36D0F00E83140409D3
:10234000836E0A0EE66EE66A56EC12F042E983A846
:1023500002D0080E28D083AA02D0090E24D083AC64
:1023600002D00A0E20D083AE02D00B0E1CD0F00E8D
:1023700083140809836E0A0EE66EE66A56EC12F0C4
:1023800042E983A802D00C0E0ED083AA02D00D0E13
:102390000AD083AC02D00E0E06D083AE02D00F0E50
:1023A00002D0FF0E00D012008CDF000901E1FCD743
:0623B00090DF00D01200D6
:0A23B6001E0EF66E200EF76E000EEC
:1023C000F86E00010900F550096F0900F5500A6F19
:1023D00003E1096701D03DD00900F550046F090001
:1023E000F550056F0900F550066F09000900F5501A
:1023F000E96E0900F550EA6E090009000900F55080
:10240000076F0900F550086F09000900F6CF0BF0BF
:10241000F7CF0CF0F8CF0DF004C0F6FF05C0F7FFC2
:1024200006C0F8FF0001075302E1085307E0090066
:10243000F550EE6E0707F8E20807F9D70BC0F6FF74
:102440000CC0F7FF0DC0F8FF00010907000E0A5B82
:04245000BFD71200E0
:0C245400D9CFE6FFE1CFD9FF83E944E8CF
:1024600000EB1BF001EB1CF00006000E015A00010E
:102470001B511C1117E0C10E036E020E046E056A9B
:10248000066A03500410051006100BE0D950030F24
:10249000E96EDACFEAFFEE06000EEE5AEE5AEE5A79
:1024A000F0D7DED745E9E7CFD9FF1200D9CFE6FF55
:1024B000E1CFD9FF83E941E800EB1BF001EB1CF011
:1024C0000006000E015A00011B511C1107E00A0E04
:1024D000036E035002E00306FCD7EED742E9E7CFD4
:0424E000D9FF12000E
:0C24E400E1CF00F0E2CF01F0D9CF02F010
:1024F000DACF03F017EE00F027EE00F0F86ADBEC1D
:1025000011F007EC10F028EC11F000C0E1FF01C061
:0C251000E2FF02C0D9FF03C0DAFF120096
:04251C00000EF36E4C
:1025200000EE00F0080E01D81200EA6002D0EE6A58
:0C253000FCD7F350E9601200EE6AFCD703
:04253C0031323341C4
:0C25400034353642373839432A30234402
:04254C00000000008B
:05255000010014000071
:00000001FF
